{
  "_format": "hh-sol-artifact-1",
  "contractName": "TankMint",
  "sourceName": "contracts/tank_mint.sol",
  "abi": [
    {
      "inputs": [
        {
          "internalType": "string",
          "name": "_name",
          "type": "string"
        },
        {
          "internalType": "string",
          "name": "_symbol",
          "type": "string"
        }
      ],
      "stateMutability": "nonpayable",
      "type": "constructor"
    },
    {
      "anonymous": false,
      "inputs": [
        {
          "indexed": true,
          "internalType": "address",
          "name": "owner",
          "type": "address"
        },
        {
          "indexed": true,
          "internalType": "address",
          "name": "approved",
          "type": "address"
        },
        {
          "indexed": true,
          "internalType": "uint256",
          "name": "tokenId",
          "type": "uint256"
        }
      ],
      "name": "Approval",
      "type": "event"
    },
    {
      "anonymous": false,
      "inputs": [
        {
          "indexed": true,
          "internalType": "address",
          "name": "owner",
          "type": "address"
        },
        {
          "indexed": true,
          "internalType": "address",
          "name": "operator",
          "type": "address"
        },
        {
          "indexed": false,
          "internalType": "bool",
          "name": "approved",
          "type": "bool"
        }
      ],
      "name": "ApprovalForAll",
      "type": "event"
    },
    {
      "anonymous": false,
      "inputs": [
        {
          "indexed": false,
          "internalType": "address",
          "name": "winner",
          "type": "address"
        },
        {
          "indexed": false,
          "internalType": "uint256",
          "name": "rewardAmount",
          "type": "uint256"
        }
      ],
      "name": "BettingEnded",
      "type": "event"
    },
    {
      "anonymous": false,
      "inputs": [
        {
          "indexed": false,
          "internalType": "address",
          "name": "player",
          "type": "address"
        },
        {
          "indexed": false,
          "internalType": "uint256",
          "name": "amount",
          "type": "uint256"
        }
      ],
      "name": "BettingStarted",
      "type": "event"
    },
    {
      "anonymous": false,
      "inputs": [
        {
          "indexed": false,
          "internalType": "address",
          "name": "player",
          "type": "address"
        },
        {
          "indexed": false,
          "internalType": "uint256",
          "name": "tokenId",
          "type": "uint256"
        }
      ],
      "name": "TankNFTMinted",
      "type": "event"
    },
    {
      "anonymous": false,
      "inputs": [
        {
          "indexed": true,
          "internalType": "address",
          "name": "from",
          "type": "address"
        },
        {
          "indexed": true,
          "internalType": "address",
          "name": "to",
          "type": "address"
        },
        {
          "indexed": true,
          "internalType": "uint256",
          "name": "tokenId",
          "type": "uint256"
        }
      ],
      "name": "Transfer",
      "type": "event"
    },
    {
      "inputs": [
        {
          "internalType": "address",
          "name": "to",
          "type": "address"
        },
        {
          "internalType": "uint256",
          "name": "tokenId",
          "type": "uint256"
        }
      ],
      "name": "approve",
      "outputs": [],
      "stateMutability": "nonpayable",
      "type": "function"
    },
    {
      "inputs": [
        {
          "internalType": "address",
          "name": "owner",
          "type": "address"
        }
      ],
      "name": "balanceOf",
      "outputs": [
        {
          "internalType": "uint256",
          "name": "",
          "type": "uint256"
        }
      ],
      "stateMutability": "view",
      "type": "function"
    },
    {
      "inputs": [
        {
          "internalType": "uint256",
          "name": "_amount",
          "type": "uint256"
        }
      ],
      "name": "bettingEther",
      "outputs": [
        {
          "internalType": "bool",
          "name": "status",
          "type": "bool"
        }
      ],
      "stateMutability": "payable",
      "type": "function"
    },
    {
      "inputs": [
        {
          "internalType": "uint256",
          "name": "tokenId",
          "type": "uint256"
        }
      ],
      "name": "getApproved",
      "outputs": [
        {
          "internalType": "address",
          "name": "",
          "type": "address"
        }
      ],
      "stateMutability": "view",
      "type": "function"
    },
    {
      "inputs": [
        {
          "internalType": "address",
          "name": "owner",
          "type": "address"
        },
        {
          "internalType": "address",
          "name": "operator",
          "type": "address"
        }
      ],
      "name": "isApprovedForAll",
      "outputs": [
        {
          "internalType": "bool",
          "name": "",
          "type": "bool"
        }
      ],
      "stateMutability": "view",
      "type": "function"
    },
    {
      "inputs": [
        {
          "internalType": "string",
          "name": "_tokenUri",
          "type": "string"
        }
      ],
      "name": "mintTankNFT",
      "outputs": [
        {
          "internalType": "uint256",
          "name": "_tokenId",
          "type": "uint256"
        }
      ],
      "stateMutability": "nonpayable",
      "type": "function"
    },
    {
      "inputs": [],
      "name": "name",
      "outputs": [
        {
          "internalType": "string",
          "name": "",
          "type": "string"
        }
      ],
      "stateMutability": "view",
      "type": "function"
    },
    {
      "inputs": [
        {
          "internalType": "uint256",
          "name": "tokenId",
          "type": "uint256"
        }
      ],
      "name": "ownerOf",
      "outputs": [
        {
          "internalType": "address",
          "name": "",
          "type": "address"
        }
      ],
      "stateMutability": "view",
      "type": "function"
    },
    {
      "inputs": [
        {
          "internalType": "address",
          "name": "from",
          "type": "address"
        },
        {
          "internalType": "address",
          "name": "to",
          "type": "address"
        },
        {
          "internalType": "uint256",
          "name": "tokenId",
          "type": "uint256"
        }
      ],
      "name": "safeTransferFrom",
      "outputs": [],
      "stateMutability": "nonpayable",
      "type": "function"
    },
    {
      "inputs": [
        {
          "internalType": "address",
          "name": "from",
          "type": "address"
        },
        {
          "internalType": "address",
          "name": "to",
          "type": "address"
        },
        {
          "internalType": "uint256",
          "name": "tokenId",
          "type": "uint256"
        },
        {
          "internalType": "bytes",
          "name": "data",
          "type": "bytes"
        }
      ],
      "name": "safeTransferFrom",
      "outputs": [],
      "stateMutability": "nonpayable",
      "type": "function"
    },
    {
      "inputs": [
        {
          "internalType": "address",
          "name": "_winner",
          "type": "address"
        },
        {
          "internalType": "uint256",
          "name": "_rewardAmount",
          "type": "uint256"
        }
      ],
      "name": "sendRewardToWinner",
      "outputs": [
        {
          "internalType": "bool",
          "name": "status",
          "type": "bool"
        }
      ],
      "stateMutability": "nonpayable",
      "type": "function"
    },
    {
      "inputs": [
        {
          "internalType": "address",
          "name": "operator",
          "type": "address"
        },
        {
          "internalType": "bool",
          "name": "approved",
          "type": "bool"
        }
      ],
      "name": "setApprovalForAll",
      "outputs": [],
      "stateMutability": "nonpayable",
      "type": "function"
    },
    {
      "inputs": [
        {
          "internalType": "bytes4",
          "name": "interfaceId",
          "type": "bytes4"
        }
      ],
      "name": "supportsInterface",
      "outputs": [
        {
          "internalType": "bool",
          "name": "",
          "type": "bool"
        }
      ],
      "stateMutability": "view",
      "type": "function"
    },
    {
      "inputs": [],
      "name": "symbol",
      "outputs": [
        {
          "internalType": "string",
          "name": "",
          "type": "string"
        }
      ],
      "stateMutability": "view",
      "type": "function"
    },
    {
      "inputs": [
        {
          "internalType": "uint256",
          "name": "tokenId",
          "type": "uint256"
        }
      ],
      "name": "tokenURI",
      "outputs": [
        {
          "internalType": "string",
          "name": "",
          "type": "string"
        }
      ],
      "stateMutability": "view",
      "type": "function"
    },
    {
      "inputs": [
        {
          "internalType": "address",
          "name": "from",
          "type": "address"
        },
        {
          "internalType": "address",
          "name": "to",
          "type": "address"
        },
        {
          "internalType": "uint256",
          "name": "tokenId",
          "type": "uint256"
        }
      ],
      "name": "transferFrom",
      "outputs": [],
      "stateMutability": "nonpayable",
      "type": "function"
    }
  ],
  "bytecode": "0x60806040523480156200001157600080fd5b5060405162003a3138038062003a3183398181016040528101906200003791906200023b565b818181600090816200004a91906200050b565b5080600190816200005c91906200050b565b50505033600860006101000a81548173ffffffffffffffffffffffffffffffffffffffff021916908373ffffffffffffffffffffffffffffffffffffffff1602179055505050620005f2565b6000604051905090565b600080fd5b600080fd5b600080fd5b600080fd5b6000601f19601f8301169050919050565b7f4e487b7100000000000000000000000000000000000000000000000000000000600052604160045260246000fd5b6200011182620000c6565b810181811067ffffffffffffffff82111715620001335762000132620000d7565b5b80604052505050565b600062000148620000a8565b905062000156828262000106565b919050565b600067ffffffffffffffff821115620001795762000178620000d7565b5b6200018482620000c6565b9050602081019050919050565b60005b83811015620001b157808201518184015260208101905062000194565b60008484015250505050565b6000620001d4620001ce846200015b565b6200013c565b905082815260208101848484011115620001f357620001f2620000c1565b5b6200020084828562000191565b509392505050565b600082601f83011262000220576200021f620000bc565b5b815162000232848260208601620001bd565b91505092915050565b60008060408385031215620002555762000254620000b2565b5b600083015167ffffffffffffffff811115620002765762000275620000b7565b5b620002848582860162000208565b925050602083015167ffffffffffffffff811115620002a857620002a7620000b7565b5b620002b68582860162000208565b9150509250929050565b600081519050919050565b7f4e487b7100000000000000000000000000000000000000000000000000000000600052602260045260246000fd5b600060028204905060018216806200031357607f821691505b602082108103620003295762000328620002cb565b5b50919050565b60008190508160005260206000209050919050565b60006020601f8301049050919050565b600082821b905092915050565b600060088302620003937fffffffffffffffffffffffffffffffffffffffffffffffffffffffffffffffff8262000354565b6200039f868362000354565b95508019841693508086168417925050509392505050565b6000819050919050565b6000819050919050565b6000620003ec620003e6620003e084620003b7565b620003c1565b620003b7565b9050919050565b6000819050919050565b6200040883620003cb565b620004206200041782620003f3565b84845462000361565b825550505050565b600090565b6200043762000428565b62000444818484620003fd565b505050565b5b818110156200046c57620004606000826200042d565b6001810190506200044a565b5050565b601f821115620004bb5762000485816200032f565b620004908462000344565b81016020851015620004a0578190505b620004b8620004af8562000344565b83018262000449565b50505b505050565b600082821c905092915050565b6000620004e060001984600802620004c0565b1980831691505092915050565b6000620004fb8383620004cd565b9150826002028217905092915050565b6200051682620002c0565b67ffffffffffffffff811115620005325762000531620000d7565b5b6200053e8254620002fa565b6200054b82828562000470565b600060209050601f8311600181146200058357600084156200056e578287015190505b6200057a8582620004ed565b865550620005ea565b601f19841662000593866200032f565b60005b82811015620005bd5784890151825560018201915060208501945060208101905062000596565b86831015620005dd5784890151620005d9601f891682620004cd565b8355505b6001600288020188555050505b505050505050565b61342f80620006026000396000f3fe6080604052600436106100f35760003560e01c806370a082311161008a578063a22cb46511610059578063a22cb46514610367578063b88d4fde14610390578063c87b56dd146103b9578063e985e9c5146103f6576100f3565b806370a0823114610285578063797607c2146102c257806392cfca6e146102ff57806395d89b411461033c576100f3565b806323b872dd116100c657806323b872dd146101c657806342842e0e146101ef5780634e5b833a146102185780636352211e14610248576100f3565b806301ffc9a7146100f857806306fdde0314610135578063081812fc14610160578063095ea7b31461019d575b600080fd5b34801561010457600080fd5b5061011f600480360381019061011a9190611f7e565b610433565b60405161012c9190611fc6565b60405180910390f35b34801561014157600080fd5b5061014a610515565b6040516101579190612071565b60405180910390f35b34801561016c57600080fd5b50610187600480360381019061018291906120c9565b6105a7565b6040516101949190612137565b60405180910390f35b3480156101a957600080fd5b506101c460048036038101906101bf919061217e565b6105ed565b005b3480156101d257600080fd5b506101ed60048036038101906101e891906121be565b610704565b005b3480156101fb57600080fd5b50610216600480360381019061021191906121be565b610764565b005b610232600480360381019061022d91906120c9565b610784565b60405161023f9190611fc6565b60405180910390f35b34801561025457600080fd5b5061026f600480360381019061026a91906120c9565b6108d2565b60405161027c9190612137565b60405180910390f35b34801561029157600080fd5b506102ac60048036038101906102a79190612211565b610958565b6040516102b9919061224d565b60405180910390f35b3480156102ce57600080fd5b506102e960048036038101906102e4919061217e565b610a0f565b6040516102f69190611fc6565b60405180910390f35b34801561030b57600080fd5b506103266004803603810190610321919061239d565b610c0b565b604051610333919061224d565b60405180910390f35b34801561034857600080fd5b50610351610c7b565b60405161035e9190612071565b60405180910390f35b34801561037357600080fd5b5061038e60048036038101906103899190612412565b610d0d565b005b34801561039c57600080fd5b506103b760048036038101906103b291906124f3565b610d23565b005b3480156103c557600080fd5b506103e060048036038101906103db91906120c9565b610d85565b6040516103ed9190612071565b60405180910390f35b34801561040257600080fd5b5061041d60048036038101906104189190612576565b610e97565b60405161042a9190611fc6565b60405180910390f35b60007f80ac58cd000000000000000000000000000000000000000000000000000000007bffffffffffffffffffffffffffffffffffffffffffffffffffffffff1916827bffffffffffffffffffffffffffffffffffffffffffffffffffffffff191614806104fe57507f5b5e139f000000000000000000000000000000000000000000000000000000007bffffffffffffffffffffffffffffffffffffffffffffffffffffffff1916827bffffffffffffffffffffffffffffffffffffffffffffffffffffffff1916145b8061050e575061050d82610f2b565b5b9050919050565b606060008054610524906125e5565b80601f0160208091040260200160405190810160405280929190818152602001828054610550906125e5565b801561059d5780601f106105725761010080835404028352916020019161059d565b820191906000526020600020905b81548152906001019060200180831161058057829003601f168201915b5050505050905090565b60006105b282610f95565b6004600083815260200190815260200160002060009054906101000a900473ffffffffffffffffffffffffffffffffffffffff169050919050565b60006105f8826108d2565b90508073ffffffffffffffffffffffffffffffffffffffff168373ffffffffffffffffffffffffffffffffffffffff1603610668576040517f08c379a000000000000000000000000000000000000000000000000000000000815260040161065f90612688565b60405180910390fd5b8073ffffffffffffffffffffffffffffffffffffffff16610687610fe0565b73ffffffffffffffffffffffffffffffffffffffff1614806106b657506106b5816106b0610fe0565b610e97565b5b6106f5576040517f08c379a00000000000000000000000000000000000000000000000000000000081526004016106ec9061271a565b60405180910390fd5b6106ff8383610fe8565b505050565b61071561070f610fe0565b826110a1565b610754576040517f08c379a000000000000000000000000000000000000000000000000000000000815260040161074b906127ac565b60405180910390fd5b61075f838383611136565b505050565b61077f83838360405180602001604052806000815250610d23565b505050565b6000813410156107c9576040517f08c379a00000000000000000000000000000000000000000000000000000000081526004016107c090612818565b60405180910390fd5b60001515600860149054906101000a900460ff1615151461081f576040517f08c379a000000000000000000000000000000000000000000000000000000000815260040161081690612884565b60405180910390fd5b81600960003373ffffffffffffffffffffffffffffffffffffffff1673ffffffffffffffffffffffffffffffffffffffff168152602001908152602001600020600082825461086e91906128dd565b925050819055506001600860146101000a81548160ff0219169083151502179055507fbbfd30097fa9cb564ddf753d45a479cca32c86ca48d81ffe2ad58da70da61b2533836040516108c1929190612920565b60405180910390a160019050919050565b6000806108de8361142f565b9050600073ffffffffffffffffffffffffffffffffffffffff168173ffffffffffffffffffffffffffffffffffffffff160361094f576040517f08c379a000000000000000000000000000000000000000000000000000000000815260040161094690612995565b60405180910390fd5b80915050919050565b60008073ffffffffffffffffffffffffffffffffffffffff168273ffffffffffffffffffffffffffffffffffffffff16036109c8576040517f08c379a00000000000000000000000000000000000000000000000000000000081526004016109bf90612a27565b60405180910390fd5b600360008373ffffffffffffffffffffffffffffffffffffffff1673ffffffffffffffffffffffffffffffffffffffff168152602001908152602001600020549050919050565b600081471015610a54576040517f08c379a0000000000000000000000000000000000000000000000000000000008152600401610a4b90612a93565b60405180910390fd5b60011515600860149054906101000a900460ff16151514610aaa576040517f08c379a0000000000000000000000000000000000000000000000000000000008152600401610aa190612aff565b60405180910390fd5b60008373ffffffffffffffffffffffffffffffffffffffff1683604051610ad090612b50565b60006040518083038185875af1925050503d8060008114610b0d576040519150601f19603f3d011682016040523d82523d6000602084013e610b12565b606091505b5050905080610b56576040517f08c379a0000000000000000000000000000000000000000000000000000000008152600401610b4d90612bb1565b60405180910390fd5b82600960008673ffffffffffffffffffffffffffffffffffffffff1673ffffffffffffffffffffffffffffffffffffffff1681526020019081526020016000206000828254610ba59190612bd1565b925050819055506000600860146101000a81548160ff0219169083151502179055507fdb7590473376bc361409dd8125823c3ee0e7adb45904229eca95153e8781c5e88484604051610bf8929190612920565b60405180910390a1600191505092915050565b6000610c17600761146c565b6000610c236007611482565b9050610c2f3382611490565b610c3981846114ae565b7f8553d83f8f3be69368d26896bbbee525a5c9c740ccdc6236a45571e1f2e197b33382604051610c6a929190612920565b60405180910390a180915050919050565b606060018054610c8a906125e5565b80601f0160208091040260200160405190810160405280929190818152602001828054610cb6906125e5565b8015610d035780601f10610cd857610100808354040283529160200191610d03565b820191906000526020600020905b815481529060010190602001808311610ce657829003601f168201915b5050505050905090565b610d1f610d18610fe0565b838361151b565b5050565b610d34610d2e610fe0565b836110a1565b610d73576040517f08c379a0000000000000000000000000000000000000000000000000000000008152600401610d6a906127ac565b60405180910390fd5b610d7f84848484611687565b50505050565b6060610d9082610f95565b6000600660008481526020019081526020016000208054610db0906125e5565b80601f0160208091040260200160405190810160405280929190818152602001828054610ddc906125e5565b8015610e295780601f10610dfe57610100808354040283529160200191610e29565b820191906000526020600020905b815481529060010190602001808311610e0c57829003601f168201915b505050505090506000610e3a6116e3565b90506000815103610e4f578192505050610e92565b600082511115610e84578082604051602001610e6c929190612c51565b60405160208183030381529060405292505050610e92565b610e8d846116fa565b925050505b919050565b6000600560008473ffffffffffffffffffffffffffffffffffffffff1673ffffffffffffffffffffffffffffffffffffffff16815260200190815260200160002060008373ffffffffffffffffffffffffffffffffffffffff1673ffffffffffffffffffffffffffffffffffffffff16815260200190815260200160002060009054906101000a900460ff16905092915050565b60007f01ffc9a7000000000000000000000000000000000000000000000000000000007bffffffffffffffffffffffffffffffffffffffffffffffffffffffff1916827bffffffffffffffffffffffffffffffffffffffffffffffffffffffff1916149050919050565b610f9e81611762565b610fdd576040517f08c379a0000000000000000000000000000000000000000000000000000000008152600401610fd490612995565b60405180910390fd5b50565b600033905090565b816004600083815260200190815260200160002060006101000a81548173ffffffffffffffffffffffffffffffffffffffff021916908373ffffffffffffffffffffffffffffffffffffffff160217905550808273ffffffffffffffffffffffffffffffffffffffff1661105b836108d2565b73ffffffffffffffffffffffffffffffffffffffff167f8c5be1e5ebec7d5bd14f71427d1e84f3dd0314c0f7b2291e5b200ac8c7c3b92560405160405180910390a45050565b6000806110ad836108d2565b90508073ffffffffffffffffffffffffffffffffffffffff168473ffffffffffffffffffffffffffffffffffffffff1614806110ef57506110ee8185610e97565b5b8061112d57508373ffffffffffffffffffffffffffffffffffffffff16611115846105a7565b73ffffffffffffffffffffffffffffffffffffffff16145b91505092915050565b8273ffffffffffffffffffffffffffffffffffffffff16611156826108d2565b73ffffffffffffffffffffffffffffffffffffffff16146111ac576040517f08c379a00000000000000000000000000000000000000000000000000000000081526004016111a390612ce7565b60405180910390fd5b600073ffffffffffffffffffffffffffffffffffffffff168273ffffffffffffffffffffffffffffffffffffffff160361121b576040517f08c379a000000000000000000000000000000000000000000000000000000000815260040161121290612d79565b60405180910390fd5b61122883838360016117a3565b8273ffffffffffffffffffffffffffffffffffffffff16611248826108d2565b73ffffffffffffffffffffffffffffffffffffffff161461129e576040517f08c379a000000000000000000000000000000000000000000000000000000000815260040161129590612ce7565b60405180910390fd5b6004600082815260200190815260200160002060006101000a81549073ffffffffffffffffffffffffffffffffffffffff02191690556001600360008573ffffffffffffffffffffffffffffffffffffffff1673ffffffffffffffffffffffffffffffffffffffff168152602001908152602001600020600082825403925050819055506001600360008473ffffffffffffffffffffffffffffffffffffffff1673ffffffffffffffffffffffffffffffffffffffff16815260200190815260200160002060008282540192505081905550816002600083815260200190815260200160002060006101000a81548173ffffffffffffffffffffffffffffffffffffffff021916908373ffffffffffffffffffffffffffffffffffffffff160217905550808273ffffffffffffffffffffffffffffffffffffffff168473ffffffffffffffffffffffffffffffffffffffff167fddf252ad1be2c89b69c2b068fc378daa952ba7f163c4a11628f55a4df523b3ef60405160405180910390a461142a83838360016118c9565b505050565b60006002600083815260200190815260200160002060009054906101000a900473ffffffffffffffffffffffffffffffffffffffff169050919050565b6001816000016000828254019250508190555050565b600081600001549050919050565b6114aa8282604051806020016040528060008152506118cf565b5050565b6114b782611762565b6114f6576040517f08c379a00000000000000000000000000000000000000000000000000000000081526004016114ed90612e0b565b60405180910390fd5b806006600084815260200190815260200160002090816115169190612fd7565b505050565b8173ffffffffffffffffffffffffffffffffffffffff168373ffffffffffffffffffffffffffffffffffffffff1603611589576040517f08c379a0000000000000000000000000000000000000000000000000000000008152600401611580906130f5565b60405180910390fd5b80600560008573ffffffffffffffffffffffffffffffffffffffff1673ffffffffffffffffffffffffffffffffffffffff16815260200190815260200160002060008473ffffffffffffffffffffffffffffffffffffffff1673ffffffffffffffffffffffffffffffffffffffff16815260200190815260200160002060006101000a81548160ff0219169083151502179055508173ffffffffffffffffffffffffffffffffffffffff168373ffffffffffffffffffffffffffffffffffffffff167f17307eab39ab6107e8899845ad3d59bd9653f200f220920489ca2b5937696c318360405161167a9190611fc6565b60405180910390a3505050565b611692848484611136565b61169e8484848461192a565b6116dd576040517f08c379a00000000000000000000000000000000000000000000000000000000081526004016116d490613187565b60405180910390fd5b50505050565b606060405180602001604052806000815250905090565b606061170582610f95565b600061170f6116e3565b9050600081511161172f576040518060200160405280600081525061175a565b8061173984611ab1565b60405160200161174a929190612c51565b6040516020818303038152906040525b915050919050565b60008073ffffffffffffffffffffffffffffffffffffffff166117848361142f565b73ffffffffffffffffffffffffffffffffffffffff1614159050919050565b60018111156118c357600073ffffffffffffffffffffffffffffffffffffffff168473ffffffffffffffffffffffffffffffffffffffff16146118375780600360008673ffffffffffffffffffffffffffffffffffffffff1673ffffffffffffffffffffffffffffffffffffffff168152602001908152602001600020600082825461182f91906131a7565b925050819055505b600073ffffffffffffffffffffffffffffffffffffffff168373ffffffffffffffffffffffffffffffffffffffff16146118c25780600360008573ffffffffffffffffffffffffffffffffffffffff1673ffffffffffffffffffffffffffffffffffffffff16815260200190815260200160002060008282546118ba91906131db565b925050819055505b5b50505050565b50505050565b6118d98383611b7f565b6118e6600084848461192a565b611925576040517f08c379a000000000000000000000000000000000000000000000000000000000815260040161191c90613187565b60405180910390fd5b505050565b600061194b8473ffffffffffffffffffffffffffffffffffffffff16611d9c565b15611aa4578373ffffffffffffffffffffffffffffffffffffffff1663150b7a02611974610fe0565b8786866040518563ffffffff1660e01b81526004016119969493929190613264565b6020604051808303816000875af19250505080156119d257506040513d601f19601f820116820180604052508101906119cf91906132c5565b60015b611a54573d8060008114611a02576040519150601f19603f3d011682016040523d82523d6000602084013e611a07565b606091505b506000815103611a4c576040517f08c379a0000000000000000000000000000000000000000000000000000000008152600401611a4390613187565b60405180910390fd5b805181602001fd5b63150b7a0260e01b7bffffffffffffffffffffffffffffffffffffffffffffffffffffffff1916817bffffffffffffffffffffffffffffffffffffffffffffffffffffffff191614915050611aa9565b600190505b949350505050565b606060006001611ac084611dbf565b01905060008167ffffffffffffffff811115611adf57611ade612272565b5b6040519080825280601f01601f191660200182016040528015611b115781602001600182028036833780820191505090505b509050600082602001820190505b600115611b74578080600190039150507f3031323334353637383961626364656600000000000000000000000000000000600a86061a8153600a8581611b6857611b676132f2565b5b04945060008503611b1f575b819350505050919050565b600073ffffffffffffffffffffffffffffffffffffffff168273ffffffffffffffffffffffffffffffffffffffff1603611bee576040517f08c379a0000000000000000000000000000000000000000000000000000000008152600401611be59061336d565b60405180910390fd5b611bf781611762565b15611c37576040517f08c379a0000000000000000000000000000000000000000000000000000000008152600401611c2e906133d9565b60405180910390fd5b611c456000838360016117a3565b611c4e81611762565b15611c8e576040517f08c379a0000000000000000000000000000000000000000000000000000000008152600401611c85906133d9565b60405180910390fd5b6001600360008473ffffffffffffffffffffffffffffffffffffffff1673ffffffffffffffffffffffffffffffffffffffff16815260200190815260200160002060008282540192505081905550816002600083815260200190815260200160002060006101000a81548173ffffffffffffffffffffffffffffffffffffffff021916908373ffffffffffffffffffffffffffffffffffffffff160217905550808273ffffffffffffffffffffffffffffffffffffffff16600073ffffffffffffffffffffffffffffffffffffffff167fddf252ad1be2c89b69c2b068fc378daa952ba7f163c4a11628f55a4df523b3ef60405160405180910390a4611d986000838360016118c9565b5050565b6000808273ffffffffffffffffffffffffffffffffffffffff163b119050919050565b600080600090507a184f03e93ff9f4daa797ed6e38ed64bf6a1f0100000000000000008310611e1d577a184f03e93ff9f4daa797ed6e38ed64bf6a1f0100000000000000008381611e1357611e126132f2565b5b0492506040810190505b6d04ee2d6d415b85acef81000000008310611e5a576d04ee2d6d415b85acef81000000008381611e5057611e4f6132f2565b5b0492506020810190505b662386f26fc100008310611e8957662386f26fc100008381611e7f57611e7e6132f2565b5b0492506010810190505b6305f5e1008310611eb2576305f5e1008381611ea857611ea76132f2565b5b0492506008810190505b6127108310611ed7576127108381611ecd57611ecc6132f2565b5b0492506004810190505b60648310611efa5760648381611ef057611eef6132f2565b5b0492506002810190505b600a8310611f09576001810190505b80915050919050565b6000604051905090565b600080fd5b600080fd5b60007fffffffff0000000000000000000000000000000000000000000000000000000082169050919050565b611f5b81611f26565b8114611f6657600080fd5b50565b600081359050611f7881611f52565b92915050565b600060208284031215611f9457611f93611f1c565b5b6000611fa284828501611f69565b91505092915050565b60008115159050919050565b611fc081611fab565b82525050565b6000602082019050611fdb6000830184611fb7565b92915050565b600081519050919050565b600082825260208201905092915050565b60005b8381101561201b578082015181840152602081019050612000565b60008484015250505050565b6000601f19601f8301169050919050565b600061204382611fe1565b61204d8185611fec565b935061205d818560208601611ffd565b61206681612027565b840191505092915050565b6000602082019050818103600083015261208b8184612038565b905092915050565b6000819050919050565b6120a681612093565b81146120b157600080fd5b50565b6000813590506120c38161209d565b92915050565b6000602082840312156120df576120de611f1c565b5b60006120ed848285016120b4565b91505092915050565b600073ffffffffffffffffffffffffffffffffffffffff82169050919050565b6000612121826120f6565b9050919050565b61213181612116565b82525050565b600060208201905061214c6000830184612128565b92915050565b61215b81612116565b811461216657600080fd5b50565b60008135905061217881612152565b92915050565b6000806040838503121561219557612194611f1c565b5b60006121a385828601612169565b92505060206121b4858286016120b4565b9150509250929050565b6000806000606084860312156121d7576121d6611f1c565b5b60006121e586828701612169565b93505060206121f686828701612169565b9250506040612207868287016120b4565b9150509250925092565b60006020828403121561222757612226611f1c565b5b600061223584828501612169565b91505092915050565b61224781612093565b82525050565b6000602082019050612262600083018461223e565b92915050565b600080fd5b600080fd5b7f4e487b7100000000000000000000000000000000000000000000000000000000600052604160045260246000fd5b6122aa82612027565b810181811067ffffffffffffffff821117156122c9576122c8612272565b5b80604052505050565b60006122dc611f12565b90506122e882826122a1565b919050565b600067ffffffffffffffff82111561230857612307612272565b5b61231182612027565b9050602081019050919050565b82818337600083830152505050565b600061234061233b846122ed565b6122d2565b90508281526020810184848401111561235c5761235b61226d565b5b61236784828561231e565b509392505050565b600082601f83011261238457612383612268565b5b813561239484826020860161232d565b91505092915050565b6000602082840312156123b3576123b2611f1c565b5b600082013567ffffffffffffffff8111156123d1576123d0611f21565b5b6123dd8482850161236f565b91505092915050565b6123ef81611fab565b81146123fa57600080fd5b50565b60008135905061240c816123e6565b92915050565b6000806040838503121561242957612428611f1c565b5b600061243785828601612169565b9250506020612448858286016123fd565b9150509250929050565b600067ffffffffffffffff82111561246d5761246c612272565b5b61247682612027565b9050602081019050919050565b600061249661249184612452565b6122d2565b9050828152602081018484840111156124b2576124b161226d565b5b6124bd84828561231e565b509392505050565b600082601f8301126124da576124d9612268565b5b81356124ea848260208601612483565b91505092915050565b6000806000806080858703121561250d5761250c611f1c565b5b600061251b87828801612169565b945050602061252c87828801612169565b935050604061253d878288016120b4565b925050606085013567ffffffffffffffff81111561255e5761255d611f21565b5b61256a878288016124c5565b91505092959194509250565b6000806040838503121561258d5761258c611f1c565b5b600061259b85828601612169565b92505060206125ac85828601612169565b9150509250929050565b7f4e487b7100000000000000000000000000000000000000000000000000000000600052602260045260246000fd5b600060028204905060018216806125fd57607f821691505b6020821081036126105761260f6125b6565b5b50919050565b7f4552433732313a20617070726f76616c20746f2063757272656e74206f776e6560008201527f7200000000000000000000000000000000000000000000000000000000000000602082015250565b6000612672602183611fec565b915061267d82612616565b604082019050919050565b600060208201905081810360008301526126a181612665565b9050919050565b7f4552433732313a20617070726f76652063616c6c6572206973206e6f7420746f60008201527f6b656e206f776e6572206f7220617070726f76656420666f7220616c6c000000602082015250565b6000612704603d83611fec565b915061270f826126a8565b604082019050919050565b60006020820190508181036000830152612733816126f7565b9050919050565b7f4552433732313a2063616c6c6572206973206e6f7420746f6b656e206f776e6560008201527f72206f7220617070726f76656400000000000000000000000000000000000000602082015250565b6000612796602d83611fec565b91506127a18261273a565b604082019050919050565b600060208201905081810360008301526127c581612789565b9050919050565b7f546865207061796d656e74206973206e6f7420656e6f75676821000000000000600082015250565b6000612802601a83611fec565b915061280d826127cc565b602082019050919050565b60006020820190508181036000830152612831816127f5565b9050919050565b7f5468652067616d6520697320616c726561647920737461727465642100000000600082015250565b600061286e601c83611fec565b915061287982612838565b602082019050919050565b6000602082019050818103600083015261289d81612861565b9050919050565b6000819050919050565b7f4e487b7100000000000000000000000000000000000000000000000000000000600052601160045260246000fd5b60006128e8826128a4565b91506128f3836128a4565b925082820390508181126000841216828213600085121516171561291a576129196128ae565b5b92915050565b60006040820190506129356000830185612128565b612942602083018461223e565b9392505050565b7f4552433732313a20696e76616c696420746f6b656e2049440000000000000000600082015250565b600061297f601883611fec565b915061298a82612949565b602082019050919050565b600060208201905081810360008301526129ae81612972565b9050919050565b7f4552433732313a2061646472657373207a65726f206973206e6f74206120766160008201527f6c6964206f776e65720000000000000000000000000000000000000000000000602082015250565b6000612a11602983611fec565b9150612a1c826129b5565b604082019050919050565b60006020820190508181036000830152612a4081612a04565b9050919050565b7f5468652062616c616e6365206973206e6f7420656e6f75676821000000000000600082015250565b6000612a7d601a83611fec565b9150612a8882612a47565b602082019050919050565b60006020820190508181036000830152612aac81612a70565b9050919050565b7f5468652067616d65206973206e6f742073746172746564207965742100000000600082015250565b6000612ae9601c83611fec565b9150612af482612ab3565b602082019050919050565b60006020820190508181036000830152612b1881612adc565b9050919050565b600081905092915050565b50565b6000612b3a600083612b1f565b9150612b4582612b2a565b600082019050919050565b6000612b5b82612b2d565b9150819050919050565b7f4661696c656420746f2073656e64204574686572000000000000000000000000600082015250565b6000612b9b601483611fec565b9150612ba682612b65565b602082019050919050565b60006020820190508181036000830152612bca81612b8e565b9050919050565b6000612bdc826128a4565b9150612be7836128a4565b925082820190508281121560008312168382126000841215161715612c0f57612c0e6128ae565b5b92915050565b600081905092915050565b6000612c2b82611fe1565b612c358185612c15565b9350612c45818560208601611ffd565b80840191505092915050565b6000612c5d8285612c20565b9150612c698284612c20565b91508190509392505050565b7f4552433732313a207472616e736665722066726f6d20696e636f72726563742060008201527f6f776e6572000000000000000000000000000000000000000000000000000000602082015250565b6000612cd1602583611fec565b9150612cdc82612c75565b604082019050919050565b60006020820190508181036000830152612d0081612cc4565b9050919050565b7f4552433732313a207472616e7366657220746f20746865207a65726f2061646460008201527f7265737300000000000000000000000000000000000000000000000000000000602082015250565b6000612d63602483611fec565b9150612d6e82612d07565b604082019050919050565b60006020820190508181036000830152612d9281612d56565b9050919050565b7f45524337323155524953746f726167653a2055524920736574206f66206e6f6e60008201527f6578697374656e7420746f6b656e000000000000000000000000000000000000602082015250565b6000612df5602e83611fec565b9150612e0082612d99565b604082019050919050565b60006020820190508181036000830152612e2481612de8565b9050919050565b60008190508160005260206000209050919050565b60006020601f8301049050919050565b600082821b905092915050565b600060088302612e8d7fffffffffffffffffffffffffffffffffffffffffffffffffffffffffffffffff82612e50565b612e978683612e50565b95508019841693508086168417925050509392505050565b6000819050919050565b6000612ed4612ecf612eca84612093565b612eaf565b612093565b9050919050565b6000819050919050565b612eee83612eb9565b612f02612efa82612edb565b848454612e5d565b825550505050565b600090565b612f17612f0a565b612f22818484612ee5565b505050565b5b81811015612f4657612f3b600082612f0f565b600181019050612f28565b5050565b601f821115612f8b57612f5c81612e2b565b612f6584612e40565b81016020851015612f74578190505b612f88612f8085612e40565b830182612f27565b50505b505050565b600082821c905092915050565b6000612fae60001984600802612f90565b1980831691505092915050565b6000612fc78383612f9d565b9150826002028217905092915050565b612fe082611fe1565b67ffffffffffffffff811115612ff957612ff8612272565b5b61300382546125e5565b61300e828285612f4a565b600060209050601f831160018114613041576000841561302f578287015190505b6130398582612fbb565b8655506130a1565b601f19841661304f86612e2b565b60005b8281101561307757848901518255600182019150602085019450602081019050613052565b868310156130945784890151613090601f891682612f9d565b8355505b6001600288020188555050505b505050505050565b7f4552433732313a20617070726f766520746f2063616c6c657200000000000000600082015250565b60006130df601983611fec565b91506130ea826130a9565b602082019050919050565b6000602082019050818103600083015261310e816130d2565b9050919050565b7f4552433732313a207472616e7366657220746f206e6f6e20455243373231526560008201527f63656976657220696d706c656d656e7465720000000000000000000000000000602082015250565b6000613171603283611fec565b915061317c82613115565b604082019050919050565b600060208201905081810360008301526131a081613164565b9050919050565b60006131b282612093565b91506131bd83612093565b92508282039050818111156131d5576131d46128ae565b5b92915050565b60006131e682612093565b91506131f183612093565b9250828201905080821115613209576132086128ae565b5b92915050565b600081519050919050565b600082825260208201905092915050565b60006132368261320f565b613240818561321a565b9350613250818560208601611ffd565b61325981612027565b840191505092915050565b60006080820190506132796000830187612128565b6132866020830186612128565b613293604083018561223e565b81810360608301526132a5818461322b565b905095945050505050565b6000815190506132bf81611f52565b92915050565b6000602082840312156132db576132da611f1c565b5b60006132e9848285016132b0565b91505092915050565b7f4e487b7100000000000000000000000000000000000000000000000000000000600052601260045260246000fd5b7f4552433732313a206d696e7420746f20746865207a65726f2061646472657373600082015250565b6000613357602083611fec565b915061336282613321565b602082019050919050565b600060208201905081810360008301526133868161334a565b9050919050565b7f4552433732313a20746f6b656e20616c7265616479206d696e74656400000000600082015250565b60006133c3601c83611fec565b91506133ce8261338d565b602082019050919050565b600060208201905081810360008301526133f2816133b6565b905091905056fea264697066735822122016e424e17975b49d38e7a0af569064cb95e556f869edb6b8b27255a855ee4b2d64736f6c63430008110033",
  "linkReferences": {},
  "deployedLinkReferences": {}
}